{
  "contractName": "Poster",
  "abi": [
    {
      "anonymous": false,
      "inputs": [
        {
          "indexed": true,
          "internalType": "address",
          "name": "user",
          "type": "address"
        },
        {
          "indexed": false,
          "internalType": "string",
          "name": "content",
          "type": "string"
        },
        {
          "indexed": true,
          "internalType": "string",
          "name": "tag",
          "type": "string"
        }
      ],
      "name": "NewPost",
      "type": "event"
    },
    {
      "inputs": [
        {
          "internalType": "string",
          "name": "content",
          "type": "string"
        },
        {
          "internalType": "string",
          "name": "tag",
          "type": "string"
        }
      ],
      "name": "post",
      "outputs": [],
      "stateMutability": "nonpayable",
      "type": "function"
    }
  ],
  "bytecode": "0x608060405234801561000f575f80fd5b5061023f8061001d5f395ff3fe608060405234801561000f575f80fd5b5060043610610029575f3560e01c80630ae1b13d1461002d575b5f80fd5b61004061003b36600461013a565b610042565b005b8060405161005091906101bc565b6040518091039020336001600160a01b03167f6c7f3182d7e4cb876251f9ae1489975fdbbf15d9f35d393f2ac9b1ff57cec69f8460405161009191906101d7565b60405180910390a35050565b634e487b7160e01b5f52604160045260245ffd5b5f82601f8301126100c0575f80fd5b813567ffffffffffffffff808211156100db576100db61009d565b604051601f8301601f19908116603f011681019082821181831017156101035761010361009d565b8160405283815286602085880101111561011b575f80fd5b836020870160208301375f602085830101528094505050505092915050565b5f806040838503121561014b575f80fd5b823567ffffffffffffffff80821115610162575f80fd5b61016e868387016100b1565b93506020850135915080821115610183575f80fd5b50610190858286016100b1565b9150509250929050565b5f5b838110156101b457818101518382015260200161019c565b50505f910152565b5f82516101cd81846020870161019a565b9190910192915050565b602081525f82518060208401526101f581604085016020870161019a565b601f01601f1916919091016040019291505056fea2646970667358221220cfef0bf651bc48d0b0387b1843f34063c78301af2e29e2725411895848bc559264736f6c63430008150033",
  "immutableReferences": {},
  "source": "// SPDX-License-Identifier: MIT\npragma solidity >=0.4.22 <0.9.0;\n\ncontract Poster {\n    event NewPost(address indexed user, string content, string indexed tag);\n\n    function post(string memory content, string memory tag) public {\n        emit NewPost(msg.sender, content, tag);\n    }\n}\n",
  "sourcePath": "/home/_chs/university/yrr/poster-contract/contracts/Poster.sol",
  "compiler": {
    "name": "solc",
    "version": "0.8.21+commit.d9974bed.Emscripten.clang"
  },
  "schemaVersion": "3.4.16",
  "updatedAt": "2024-10-17T18:57:46.460Z",
  "networkType": "ethereum",
  "devdoc": {
    "kind": "dev",
    "methods": {},
    "version": 1
  },
  "userdoc": {
    "kind": "user",
    "methods": {},
    "version": 1
  }
}